{
  "address": "0x0165878A594ca255338adfa4d48449f69242Eb8F",
  "abi": [
    {
      "inputs": [
        {
          "internalType": "address",
          "name": "_nftAddress",
          "type": "address"
        },
        {
          "internalType": "address",
          "name": "_newOwner",
          "type": "address"
        },
        {
          "internalType": "address",
          "name": "_lockToken",
          "type": "address"
        },
        {
          "internalType": "address",
          "name": "_rewardToken",
          "type": "address"
        }
      ],
      "stateMutability": "nonpayable",
      "type": "constructor"
    },
    {
      "anonymous": false,
      "inputs": [
        {
          "indexed": true,
          "internalType": "address",
          "name": "account",
          "type": "address"
        },
        {
          "indexed": true,
          "internalType": "uint256",
          "name": "rewardAmount",
          "type": "uint256"
        }
      ],
      "name": "Claimed",
      "type": "event"
    },
    {
      "anonymous": false,
      "inputs": [
        {
          "indexed": true,
          "internalType": "address",
          "name": "previousOwner",
          "type": "address"
        },
        {
          "indexed": true,
          "internalType": "address",
          "name": "newOwner",
          "type": "address"
        }
      ],
      "name": "OwnershipTransferred",
      "type": "event"
    },
    {
      "anonymous": false,
      "inputs": [
        {
          "indexed": true,
          "internalType": "address",
          "name": "account",
          "type": "address"
        },
        {
          "indexed": true,
          "internalType": "uint256",
          "name": "boostTokenId",
          "type": "uint256"
        },
        {
          "indexed": true,
          "internalType": "bool",
          "name": "factorRegistered",
          "type": "bool"
        }
      ],
      "name": "Redeemed",
      "type": "event"
    },
    {
      "anonymous": false,
      "inputs": [
        {
          "indexed": true,
          "internalType": "address",
          "name": "account",
          "type": "address"
        },
        {
          "indexed": true,
          "internalType": "uint256",
          "name": "actualAmount",
          "type": "uint256"
        }
      ],
      "name": "Released",
      "type": "event"
    },
    {
      "anonymous": false,
      "inputs": [
        {
          "indexed": true,
          "internalType": "uint256",
          "name": "amount",
          "type": "uint256"
        }
      ],
      "name": "RewardFueled",
      "type": "event"
    },
    {
      "anonymous": false,
      "inputs": [
        {
          "indexed": true,
          "internalType": "address",
          "name": "account",
          "type": "address"
        },
        {
          "indexed": true,
          "internalType": "uint256",
          "name": "actualAmount",
          "type": "uint256"
        }
      ],
      "name": "Staked",
      "type": "event"
    },
    {
      "anonymous": false,
      "inputs": [
        {
          "indexed": true,
          "internalType": "address",
          "name": "account",
          "type": "address"
        },
        {
          "indexed": true,
          "internalType": "uint256",
          "name": "increment",
          "type": "uint256"
        }
      ],
      "name": "Sync",
      "type": "event"
    },
    {
      "inputs": [],
      "name": "BASIC_FACTOR_NUMERATOR",
      "outputs": [
        {
          "internalType": "uint256",
          "name": "",
          "type": "uint256"
        }
      ],
      "stateMutability": "view",
      "type": "function"
    },
    {
      "inputs": [],
      "name": "BOOST_CAP",
      "outputs": [
        {
          "internalType": "uint256",
          "name": "",
          "type": "uint256"
        }
      ],
      "stateMutability": "view",
      "type": "function"
    },
    {
      "inputs": [],
      "name": "FACTOR_DENOMINATOR",
      "outputs": [
        {
          "internalType": "uint256",
          "name": "",
          "type": "uint256"
        }
      ],
      "stateMutability": "view",
      "type": "function"
    },
    {
      "inputs": [],
      "name": "LOCK_TOKEN",
      "outputs": [
        {
          "internalType": "address",
          "name": "",
          "type": "address"
        }
      ],
      "stateMutability": "view",
      "type": "function"
    },
    {
      "inputs": [],
      "name": "NFT_CONTRACT",
      "outputs": [
        {
          "internalType": "contract IHoprBoost",
          "name": "",
          "type": "address"
        }
      ],
      "stateMutability": "view",
      "type": "function"
    },
    {
      "inputs": [],
      "name": "PROGRAM_END",
      "outputs": [
        {
          "internalType": "uint256",
          "name": "",
          "type": "uint256"
        }
      ],
      "stateMutability": "view",
      "type": "function"
    },
    {
      "inputs": [],
      "name": "PROGRAM_START",
      "outputs": [
        {
          "internalType": "uint256",
          "name": "",
          "type": "uint256"
        }
      ],
      "stateMutability": "view",
      "type": "function"
    },
    {
      "inputs": [],
      "name": "REWARD_TOKEN",
      "outputs": [
        {
          "internalType": "address",
          "name": "",
          "type": "address"
        }
      ],
      "stateMutability": "view",
      "type": "function"
    },
    {
      "inputs": [
        {
          "internalType": "address",
          "name": "",
          "type": "address"
        }
      ],
      "name": "accounts",
      "outputs": [
        {
          "internalType": "uint256",
          "name": "actualLockedTokenAmount",
          "type": "uint256"
        },
        {
          "internalType": "uint256",
          "name": "lastSyncTimestamp",
          "type": "uint256"
        },
        {
          "internalType": "uint256",
          "name": "cumulatedRewards",
          "type": "uint256"
        },
        {
          "internalType": "uint256",
          "name": "claimedRewards",
          "type": "uint256"
        }
      ],
      "stateMutability": "view",
      "type": "function"
    },
    {
      "inputs": [],
      "name": "availableReward",
      "outputs": [
        {
          "internalType": "uint256",
          "name": "",
          "type": "uint256"
        }
      ],
      "stateMutability": "view",
      "type": "function"
    },
    {
      "inputs": [
        {
          "internalType": "address",
          "name": "account",
          "type": "address"
        }
      ],
      "name": "claimRewards",
      "outputs": [],
      "stateMutability": "nonpayable",
      "type": "function"
    },
    {
      "inputs": [
        {
          "internalType": "address",
          "name": "_account",
          "type": "address"
        }
      ],
      "name": "getCumulatedRewardsIncrement",
      "outputs": [
        {
          "internalType": "uint256",
          "name": "",
          "type": "uint256"
        }
      ],
      "stateMutability": "view",
      "type": "function"
    },
    {
      "inputs": [
        {
          "internalType": "string",
          "name": "nftType",
          "type": "string"
        },
        {
          "internalType": "string",
          "name": "nftRank",
          "type": "string"
        },
        {
          "internalType": "address",
          "name": "hodler",
          "type": "address"
        }
      ],
      "name": "isNftTypeAndRankRedeemed1",
      "outputs": [
        {
          "internalType": "bool",
          "name": "",
          "type": "bool"
        }
      ],
      "stateMutability": "view",
      "type": "function"
    },
    {
      "inputs": [
        {
          "internalType": "uint256",
          "name": "nftTypeIndex",
          "type": "uint256"
        },
        {
          "internalType": "string",
          "name": "nftRank",
          "type": "string"
        },
        {
          "internalType": "address",
          "name": "hodler",
          "type": "address"
        }
      ],
      "name": "isNftTypeAndRankRedeemed2",
      "outputs": [
        {
          "internalType": "bool",
          "name": "",
          "type": "bool"
        }
      ],
      "stateMutability": "view",
      "type": "function"
    },
    {
      "inputs": [
        {
          "internalType": "uint256",
          "name": "nftTypeIndex",
          "type": "uint256"
        },
        {
          "internalType": "uint256",
          "name": "boostNumerator",
          "type": "uint256"
        },
        {
          "internalType": "address",
          "name": "hodler",
          "type": "address"
        }
      ],
      "name": "isNftTypeAndRankRedeemed3",
      "outputs": [
        {
          "internalType": "bool",
          "name": "",
          "type": "bool"
        }
      ],
      "stateMutability": "view",
      "type": "function"
    },
    {
      "inputs": [
        {
          "internalType": "string",
          "name": "nftType",
          "type": "string"
        },
        {
          "internalType": "uint256",
          "name": "boostNumerator",
          "type": "uint256"
        },
        {
          "internalType": "address",
          "name": "hodler",
          "type": "address"
        }
      ],
      "name": "isNftTypeAndRankRedeemed4",
      "outputs": [
        {
          "internalType": "bool",
          "name": "",
          "type": "bool"
        }
      ],
      "stateMutability": "view",
      "type": "function"
    },
    {
      "inputs": [
        {
          "internalType": "address",
          "name": "operator",
          "type": "address"
        },
        {
          "internalType": "address",
          "name": "from",
          "type": "address"
        },
        {
          "internalType": "uint256",
          "name": "tokenId",
          "type": "uint256"
        },
        {
          "internalType": "bytes",
          "name": "data",
          "type": "bytes"
        }
      ],
      "name": "onERC721Received",
      "outputs": [
        {
          "internalType": "bytes4",
          "name": "",
          "type": "bytes4"
        }
      ],
      "stateMutability": "nonpayable",
      "type": "function"
    },
    {
      "inputs": [
        {
          "internalType": "address",
          "name": "_from",
          "type": "address"
        },
        {
          "internalType": "uint256",
          "name": "_value",
          "type": "uint256"
        },
        {
          "internalType": "bytes",
          "name": "_data",
          "type": "bytes"
        }
      ],
      "name": "onTokenTransfer",
      "outputs": [
        {
          "internalType": "bool",
          "name": "",
          "type": "bool"
        }
      ],
      "stateMutability": "nonpayable",
      "type": "function"
    },
    {
      "inputs": [],
      "name": "owner",
      "outputs": [
        {
          "internalType": "address",
          "name": "",
          "type": "address"
        }
      ],
      "stateMutability": "view",
      "type": "function"
    },
    {
      "inputs": [
        {
          "internalType": "address",
          "name": "tokenAddress",
          "type": "address"
        }
      ],
      "name": "reclaimErc20Tokens",
      "outputs": [],
      "stateMutability": "nonpayable",
      "type": "function"
    },
    {
      "inputs": [
        {
          "internalType": "address",
          "name": "tokenAddress",
          "type": "address"
        },
        {
          "internalType": "uint256",
          "name": "tokenId",
          "type": "uint256"
        }
      ],
      "name": "reclaimErc721Tokens",
      "outputs": [],
      "stateMutability": "nonpayable",
      "type": "function"
    },
    {
      "inputs": [
        {
          "internalType": "address",
          "name": "",
          "type": "address"
        },
        {
          "internalType": "uint256",
          "name": "",
          "type": "uint256"
        }
      ],
      "name": "redeemedFactor",
      "outputs": [
        {
          "internalType": "uint256",
          "name": "",
          "type": "uint256"
        }
      ],
      "stateMutability": "view",
      "type": "function"
    },
    {
      "inputs": [
        {
          "internalType": "address",
          "name": "",
          "type": "address"
        }
      ],
      "name": "redeemedFactorIndex",
      "outputs": [
        {
          "internalType": "uint256",
          "name": "",
          "type": "uint256"
        }
      ],
      "stateMutability": "view",
      "type": "function"
    },
    {
      "inputs": [
        {
          "internalType": "address",
          "name": "",
          "type": "address"
        },
        {
          "internalType": "uint256",
          "name": "",
          "type": "uint256"
        }
      ],
      "name": "redeemedNft",
      "outputs": [
        {
          "internalType": "uint256",
          "name": "",
          "type": "uint256"
        }
      ],
      "stateMutability": "view",
      "type": "function"
    },
    {
      "inputs": [
        {
          "internalType": "address",
          "name": "",
          "type": "address"
        }
      ],
      "name": "redeemedNftIndex",
      "outputs": [
        {
          "internalType": "uint256",
          "name": "",
          "type": "uint256"
        }
      ],
      "stateMutability": "view",
      "type": "function"
    },
    {
      "inputs": [],
      "name": "renounceOwnership",
      "outputs": [],
      "stateMutability": "nonpayable",
      "type": "function"
    },
    {
      "inputs": [
        {
          "internalType": "address",
          "name": "_account",
          "type": "address"
        }
      ],
      "name": "stakedHoprTokens",
      "outputs": [
        {
          "internalType": "uint256",
          "name": "",
          "type": "uint256"
        }
      ],
      "stateMutability": "view",
      "type": "function"
    },
    {
      "inputs": [
        {
          "internalType": "address",
          "name": "account",
          "type": "address"
        }
      ],
      "name": "sync",
      "outputs": [],
      "stateMutability": "nonpayable",
      "type": "function"
    },
    {
      "inputs": [
        {
          "internalType": "address",
          "name": "operator",
          "type": "address"
        },
        {
          "internalType": "address",
          "name": "from",
          "type": "address"
        },
        {
          "internalType": "address",
          "name": "to",
          "type": "address"
        },
        {
          "internalType": "uint256",
          "name": "amount",
          "type": "uint256"
        },
        {
          "internalType": "bytes",
          "name": "userData",
          "type": "bytes"
        },
        {
          "internalType": "bytes",
          "name": "operatorData",
          "type": "bytes"
        }
      ],
      "name": "tokensReceived",
      "outputs": [],
      "stateMutability": "nonpayable",
      "type": "function"
    },
    {
      "inputs": [],
      "name": "totalLocked",
      "outputs": [
        {
          "internalType": "uint256",
          "name": "",
          "type": "uint256"
        }
      ],
      "stateMutability": "view",
      "type": "function"
    },
    {
      "inputs": [
        {
          "internalType": "address",
          "name": "newOwner",
          "type": "address"
        }
      ],
      "name": "transferOwnership",
      "outputs": [],
      "stateMutability": "nonpayable",
      "type": "function"
    },
    {
      "inputs": [],
      "name": "unlock",
      "outputs": [],
      "stateMutability": "nonpayable",
      "type": "function"
    },
    {
      "inputs": [
        {
          "internalType": "address",
          "name": "account",
          "type": "address"
        }
      ],
      "name": "unlockFor",
      "outputs": [],
      "stateMutability": "nonpayable",
      "type": "function"
    }
  ],
  "transactionHash": "0x299ac61d5a3a35676c82023f898ed8181b33112dd8a47bd5b8515c1b28ea6b10",
  "args": [
    "0xDc64a140Aa3E981100a9becA4E685f962f0cF6C9",
    "0x70997970C51812dc3A010C7d01b50e0d17dc79C8",
    "0x9fE46736679d2D9a65F0992F2272dE9f3c7fa6e0",
    "0xCf7Ed3AccA5a467e9e704C703E8D87F634fB0Fc9"
  ],
  "solcInputHash": "5fa00b4a586ee3a42a91ca9cffb75029",
  "bytecode": "0x6080604052600280546001600160a01b031990811673d057604a14982fe8d88c5fc25aac3267ea142a081790915560038054821673d4fdec44db9d44b8f2b6d529620f9c0c7066a2c1179055600480549091167343d13d7b83607f14335cf2cb75e87da369d056c71790553480156200007757600080fd5b5060405162002a7e38038062002a7e8339810160408190526200009a91620002dc565b620000a5336200019a565b600180554660648114620000f157600280546001600160a01b038086166001600160a01b0319928316179092556003805485841690831617905560048054928816929091169190911790555b620000fc84620001ea565b6040516329965a1d60e01b815230600482018190527fb281fc8c12954d22544db45de3159a39272895b169a852b314f9cc762e44c53b60248301526044820152731820a4b7618bde71dce8cdc73aab6c95905fad24906329965a1d90606401600060405180830381600087803b1580156200017657600080fd5b505af11580156200018b573d6000803e3d6000fd5b50505050505050505062000339565b600080546001600160a01b038381166001600160a01b0319831681178455604051919092169283917f8be0079c531659141344cd1fd0a4f28419497f9722a3daafe3b4186f6b6457e09190a35050565b6000546001600160a01b031633146200024a5760405162461bcd60e51b815260206004820181905260248201527f4f776e61626c653a2063616c6c6572206973206e6f7420746865206f776e657260448201526064015b60405180910390fd5b6001600160a01b038116620002b15760405162461bcd60e51b815260206004820152602660248201527f4f776e61626c653a206e6577206f776e657220697320746865207a65726f206160448201526564647265737360d01b606482015260840162000241565b620002bc816200019a565b50565b80516001600160a01b0381168114620002d757600080fd5b919050565b60008060008060808587031215620002f357600080fd5b620002fe85620002bf565b93506200030e60208601620002bf565b92506200031e60408601620002bf565b91506200032e60608601620002bf565b905092959194509250565b61273580620003496000396000f3fe608060405234801561001057600080fd5b50600436106101fa5760003560e01c80638c24add41161011a578063cbffa3c7116100ad578063dde499791161007c578063dde49979146104a8578063ef0526a2146104bb578063ef5cfb8c146104cc578063f2fde38b146104df578063f978fff1146104f257600080fd5b8063cbffa3c714610457578063ce23177e14610462578063d0c02d6314610475578063d0da68011461049557600080fd5b8063a4c0ed36116100e9578063a4c0ed3614610416578063a584119414610429578063a69df4b51461043c578063a83d1ed61461044457600080fd5b80638c24add4146103bc5780638da5cb5b146103df57806396a9cd7d146103f057806399248ea71461040357600080fd5b80635bbb63a6116101925780636aa8d4cf116101615780636aa8d4cf1461036d57806370af093414610376578063715018a61461038957806381128c1d1461039157600080fd5b80635bbb63a6146102ee5780635e5c06e2146102f95780635ef73d581461034e5780636067bc151461035a57600080fd5b80631fda9a02116101ce5780631fda9a021461029e57806348c64e41146102c95780634ad84b34146102dc57806356891412146102e557600080fd5b806223de29146101ff5780630a1a257a14610214578063150b7a02146102525780631f014d831461027e575b600080fd5b61021261020d366004612110565b61051b565b005b61023f61022236600461222a565b600560209081526000928352604080842090915290825290205481565b6040519081526020015b60405180910390f35b6102656102603660046121bb565b6106c8565b6040516001600160e01b03199091168152602001610249565b61023f61028c3660046120f5565b60086020526000908152604090205481565b6004546102b1906001600160a01b031681565b6040516001600160a01b039091168152602001610249565b6102126102d736600461222a565b610b7d565b61023f600b5481565b61023f600a5481565b61023f6361e5685081565b61032e6103073660046120f5565b60096020526000908152604090208054600182015460028301546003909301549192909184565b604080519485526020850193909352918301526060820152608001610249565b61023f64e8d4a5100081565b6102126103683660046120f5565b610cfc565b61023f61169b81565b61023f6103843660046120f5565b610ece565b610212610edf565b61023f61039f36600461222a565b600760209081526000928352604080842090915290825290205481565b6103cf6103ca3660046123cc565b610f15565b6040519015158152602001610249565b6000546001600160a01b03166102b1565b6103cf6103fe366004612433565b6110a5565b6003546102b1906001600160a01b031681565b6103cf610424366004612254565b611220565b6102126104373660046120f5565b61138d565b610212611399565b6103cf610452366004612496565b6113a2565b61023f636267dec081565b6103cf610470366004612358565b611513565b61023f6104833660046120f5565b60066020526000908152604090205481565b6002546102b1906001600160a01b031681565b6102126104b63660046120f5565b61163c565b61023f69d3c21bcecceda100000081565b6102126104da3660046120f5565b611645565b6102126104ed3660046120f5565b611657565b61023f6105003660046120f5565b6001600160a01b031660009081526009602052604090205490565b6003546001600160a01b031633146105895760405162461bcd60e51b815260206004820152602660248201527f486f70725374616b653a2053656e646572206d757374206265207778484f5052604482015265103a37b5b2b760d11b60648201526084015b60405180910390fd5b6001600160a01b03861630146106075760405162461bcd60e51b815260206004820152603760248201527f486f70725374616b653a204d7573742062652073656e64696e6720746f6b656e60448201527f7320746f20486f70725374616b6520636f6e74726163740000000000000000006064820152608401610580565b6000546001600160a01b0388811691161461067c5760405162461bcd60e51b815260206004820152602f60248201527f486f70725374616b653a204f6e6c7920616363657074206f776e657220746f2060448201526e70726f76696465207265776172647360881b6064820152608401610580565b84600b600082825461068e91906125db565b909155505060405185907f2bf52bcae319602514e02ff69bbe4b89a19718b96e7867044128ec872419437c90600090a25050505050505050565b6004546000906001600160a01b0316336001600160a01b0316146107545760405162461bcd60e51b815260206004820152603f60248201527f486f70725374616b653a2043616e6e6f7420536166655472616e73666572467260448201527f6f6d20746f6b656e73206f74686572207468616e20486f7072426f6f73742e006064820152608401610580565b636267dec04211156107c05760405162461bcd60e51b815260206004820152602f60248201527f486f70725374616b653a2050726f6772616d20656e6465642c2063616e6e6f7460448201526e103932b232b2b6903137b7b9ba399760891b6064820152608401610580565b6107c9856116ef565b6001600160a01b03851660008181526005602090815260408083206006808452828520805486529184529184208990559383529052815460019291906108109084906125db565b90915550506004805460405163562317c560e01b81529182018690526000916001600160a01b039091169063562317c59060240160206040518083038186803b15801561085c57600080fd5b505afa158015610870573d6000803e3d6000fd5b505050506040513d601f19601f82011682018060405250810190610894919061241a565b6004805460405163225b377d60e21b81529182018890529192506000916001600160a01b03169063896cddf490602401604080518083038186803b1580156108db57600080fd5b505afa1580156108ef573d6000803e3d6000fd5b505050506040513d601f19601f820116820180604052508101906109139190612472565b506001600160a01b0388166000908152600860205260408120549192505b81811015610adf576001600160a01b0389811660009081526007602090815260408083208584529091528082205460048054925163225b377d60e21b81529081018290529093919091169063896cddf490602401604080518083038186803b15801561099c57600080fd5b505afa1580156109b0573d6000803e3d6000fd5b505050506040513d601f19601f820116820180604052508101906109d49190612472565b506004805460405163562317c560e01b815291820185905291925087916001600160a01b03169063562317c59060240160206040518083038186803b158015610a1c57600080fd5b505afa158015610a30573d6000803e3d6000fd5b505050506040513d601f19601f82011682018060405250810190610a54919061241a565b1415610aca5784811015610a89576001600160a01b038b16600090815260076020908152604080832086845290915290208a90555b604051858210908b906001600160a01b038e16907f066d96cb280fccf3a0a3a5686966a801b2690a32ec98fd2711a4e09f345d935d90600090a45050610adf565b50508080610ad7906126a2565b915050610931565b81811415610b67576001600160a01b038916600081815260076020908152604080832086845282528083208c905592825260089052908120805460019290610b289084906125db565b909155505060405160019089906001600160a01b038c16907f066d96cb280fccf3a0a3a5686966a801b2690a32ec98fd2711a4e09f345d935d90600090a45b50630a85bd0160e11b9998505050505050505050565b6000546001600160a01b03163314610ba75760405162461bcd60e51b81526004016105809061254d565b60026001541415610bfa5760405162461bcd60e51b815260206004820152601f60248201527f5265656e7472616e637947756172643a207265656e7472616e742063616c6c006044820152606401610580565b60026001556004546001600160a01b0383811691161415610c6b5760405162461bcd60e51b815260206004820152602560248201527f486f70725374616b653a2043616e6e6f7420636c61696d20486f7072426f6f736044820152641d0813919560da1b6064820152608401610580565b816001600160a01b03166323b872dd30610c8d6000546001600160a01b031690565b6040516001600160e01b031960e085901b1681526001600160a01b0392831660048201529116602482015260448101849052606401600060405180830381600087803b158015610cdc57600080fd5b505af1158015610cf0573d6000803e3d6000fd5b50506001805550505050565b6000546001600160a01b03163314610d265760405162461bcd60e51b81526004016105809061254d565b60026001541415610d795760405162461bcd60e51b815260206004820152601f60248201527f5265656e7472616e637947756172643a207265656e7472616e742063616c6c006044820152606401610580565b60026001819055546000906001600160a01b0383811691161415610e2657600a546002546040516370a0823160e01b81523060048201526001600160a01b03909116906370a082319060240160206040518083038186803b158015610ddd57600080fd5b505afa158015610df1573d6000803e3d6000fd5b505050506040513d601f19601f82011682018060405250810190610e15919061241a565b610e1f9190612634565b9050610ea0565b6040516370a0823160e01b81523060048201526001600160a01b038316906370a082319060240160206040518083038186803b158015610e6557600080fd5b505afa158015610e79573d6000803e3d6000fd5b505050506040513d601f19601f82011682018060405250810190610e9d919061241a565b90505b610ec6610eb56000546001600160a01b031690565b6001600160a01b038416908361177a565b505060018055565b6000610ed9826117d1565b92915050565b6000546001600160a01b03163314610f095760405162461bcd60e51b81526004016105809061254d565b610f1360006119c7565b565b6000805b6001600160a01b038316600090815260066020526040902054811015611098576001600160a01b0383811660009081526005602090815260408083208584529091528082205460048054925163225b377d60e21b81529081018290529093919091169063896cddf490602401604080518083038186803b158015610f9c57600080fd5b505afa158015610fb0573d6000803e3d6000fd5b505050506040513d601f19601f82011682018060405250810190610fd49190612472565b50875160208901206004805460405163c588ff8b60e01b815291820186905292935090916001600160a01b03169063c588ff8b9060240160006040518083038186803b15801561102357600080fd5b505afa158015611037573d6000803e3d6000fd5b505050506040513d6000823e601f3d908101601f1916820160405261105f91908101906122e1565b8051906020012014801561107257508086145b15611083576001935050505061109e565b50508080611090906126a2565b915050610f19565b50600090505b9392505050565b6000805b6001600160a01b038316600090815260066020526040902054811015611098576001600160a01b0383811660009081526005602090815260408083208584529091528082205460048054925163c87b56dd60e01b81529081018290529093919091169063c87b56dd9060240160006040518083038186803b15801561112d57600080fd5b505afa158015611141573d6000803e3d6000fd5b505050506040513d6000823e601f3d908101601f1916820160405261116991908101906122e1565b6004805460405163562317c560e01b815291820185905291925088916001600160a01b03169063562317c59060240160206040518083038186803b1580156111b057600080fd5b505afa1580156111c4573d6000803e3d6000fd5b505050506040513d601f19601f820116820180604052508101906111e8919061241a565b1480156111fa57506111fa8187611a17565b1561120b576001935050505061109e565b50508080611218906126a2565b9150506110a9565b6002546000906001600160a01b031633146112925760405162461bcd60e51b815260206004820152602c60248201527f486f70725374616b653a204f6e6c7920616363657074204c4f434b5f544f4b4560448201526b4e20696e207374616b696e6760a01b6064820152608401610580565b636267dec04211156112fe5760405162461bcd60e51b815260206004820152602f60248201527f486f70725374616b653a2050726f6772616d20656e6465642c2063616e6e6f7460448201526e1039ba30b5b29030b73cb6b7b9329760891b6064820152608401610580565b611307846116ef565b6001600160a01b0384166000908152600960205260408120805485929061132f9084906125db565b9250508190555082600a600082825461134891906125db565b909155505060405183906001600160a01b038616907f9e71bc8eea02a63969f509818f2dafb9254532904319f9dbda79b67bd34a5f3d90600090a35060019392505050565b611396816116ef565b50565b610f1333611ac0565b6000805b6001600160a01b038316600090815260066020526040902054811015611098576001600160a01b0383811660009081526005602090815260408083208584529091528082205460048054925163225b377d60e21b81529081018290529093919091169063896cddf490602401604080518083038186803b15801561142957600080fd5b505afa15801561143d573d6000803e3d6000fd5b505050506040513d601f19601f820116820180604052508101906114619190612472565b506004805460405163562317c560e01b815291820185905291925088916001600160a01b03169063562317c59060240160206040518083038186803b1580156114a957600080fd5b505afa1580156114bd573d6000803e3d6000fd5b505050506040513d601f19601f820116820180604052508101906114e1919061241a565b1480156114ed57508086145b156114fe576001935050505061109e565b5050808061150b906126a2565b9150506113a6565b60008084846040516020016115299291906124de565b604051602081830303815290604052905060005b6001600160a01b038416600090815260066020526040902054811015611630576001600160a01b0384811660009081526005602090815260408083208584529091528082205460048054925163c87b56dd60e01b81529081018290529093919091169063c87b56dd9060240160006040518083038186803b1580156115c157600080fd5b505afa1580156115d5573d6000803e3d6000fd5b505050506040513d6000823e601f3d908101601f191682016040526115fd91908101906122e1565b90506116098185611a17565b1561161b57600194505050505061109e565b50508080611628906126a2565b91505061153d565b50600095945050505050565b61139681611ac0565b61164e816116ef565b61139681611c9e565b6000546001600160a01b031633146116815760405162461bcd60e51b81526004016105809061254d565b6001600160a01b0381166116e65760405162461bcd60e51b815260206004820152602660248201527f4f776e61626c653a206e6577206f776e657220697320746865207a65726f206160448201526564647265737360d01b6064820152608401610580565b611396816119c7565b60006116fa826117d1565b6001600160a01b03831660009081526009602052604081206002018054929350839290919061172a9084906125db565b90915550506001600160a01b03821660008181526009602052604080822042600190910155518392917f99869d968ca3581a661f31abb3a6aa70ccec5cdc49855eab174cf9e00a2462db91a35050565b604080516001600160a01b038416602482015260448082018490528251808303909101815260649091019091526020810180516001600160e01b031663a9059cbb60e01b1790526117cc908490611e2f565b505050565b6001600160a01b03811660009081526009602090815260408083208151608081018352815481526001820154938101939093526002810154918301919091526003015460608201526361e56850421115806118345750636267dec0816020015110155b156118425750600092915050565b80516000906118549061169b90612615565b905060005b6001600160a01b03851660009081526008602052604090205481101561195b576001600160a01b0385811660009081526007602090815260408083208584529091528082205460048054925163225b377d60e21b81529081018290529093919091169063896cddf490602401604080518083038186803b1580156118dc57600080fd5b505afa1580156118f0573d6000803e3d6000fd5b505050506040513d601f19601f820116820180604052508101906119149190612472565b50855190915081906119309069d3c21bcecceda1000000611f01565b61193a9190612615565b61194490856125db565b935050508080611953906126a2565b915050611859565b5064e8d4a5100061198b636267dec06119856361e568508660200151611f1790919063ffffffff16565b90611f01565b6119a1636267dec0611985426361e56850611f17565b6119ab9190612634565b6119b59083612615565b6119bf91906125f3565b949350505050565b600080546001600160a01b038381166001600160a01b0319831681178455604051919092169283917f8be0079c531659141344cd1fd0a4f28419497f9722a3daafe3b4186f6b6457e09190a35050565b8051825160009184918491908490611a30908390612634565b9050600084611a40600184612634565b81518110611a5057611a506126d3565b01602001516001600160f81b0319169050602f60f81b8114611a7a57600095505050505050610ed9565b6000611a87846020612634565b611a92906008612615565b9050600080611aa08761264b565b979094016020015196821c9690911c959095149550505050505092915050565b636267dec04211611b2f5760405162461bcd60e51b815260206004820152603360248201527f486f70725374616b653a2050726f6772616d206973206f6e676f696e672c206360448201527230b73737ba103ab73637b1b59039ba30b5b29760691b6064820152608401610580565b6001600160a01b038116600090815260096020526040902054611b51826116ef565b6001600160a01b0382166000908152600960205260408120819055600a8054839290611b7e908490612634565b90915550611b8d905082611c9e565b600254611ba4906001600160a01b0316838361177a565b60005b6001600160a01b038316600090815260066020526040902054811015611c6357600480546001600160a01b038581166000818152600560209081526040808320888452909152908190205490516323b872dd60e01b815230958101959095526024850191909152604484015216906323b872dd90606401600060405180830381600087803b158015611c3857600080fd5b505af1158015611c4c573d6000803e3d6000fd5b505050508080611c5b906126a2565b915050611ba7565b5060405181906001600160a01b038416907fb21fb52d5749b80f3182f8c6992236b5e5576681880914484d7f4c9b062e619e90600090a35050565b6001600160a01b038116600090815260096020908152604080832081516080810183528154815260018201549381019390935260028101549183018290526003015460608301819052919291611cf391612634565b905060008111611d455760405162461bcd60e51b815260206004820152601b60248201527f486f70725374616b653a204e6f7468696e6720746f20636c61696d00000000006044820152606401610580565b6001600160a01b03831660009081526009602052604090206002810154600390910155600b54811115611dc65760405162461bcd60e51b8152602060048201526024808201527f486f70725374616b653a20496e73756666696369656e7420726577617264207060448201526337b7b61760e11b6064820152608401610580565b80600b6000828254611dd89190612634565b9091555050600354611df4906001600160a01b0316848361177a565b60405181906001600160a01b038516907fd8138f8a3f377c5259ca548e70e4c2de94f129f5a11036a15b69513cba2b426a90600090a3505050565b6000611e84826040518060400160405280602081526020017f5361666545524332303a206c6f772d6c6576656c2063616c6c206661696c6564815250856001600160a01b0316611f279092919063ffffffff16565b8051909150156117cc5780806020019051810190611ea291906122bf565b6117cc5760405162461bcd60e51b815260206004820152602a60248201527f5361666545524332303a204552433230206f7065726174696f6e20646964206e6044820152691bdd081cdd58d8d9595960b21b6064820152608401610580565b6000818310611f10578161109e565b5090919050565b600081831015611f10578161109e565b60606119bf848460008585843b611f805760405162461bcd60e51b815260206004820152601d60248201527f416464726573733a2063616c6c20746f206e6f6e2d636f6e74726163740000006044820152606401610580565b600080866001600160a01b03168587604051611f9c91906124c2565b60006040518083038185875af1925050503d8060008114611fd9576040519150601f19603f3d011682016040523d82523d6000602084013e611fde565b606091505b5091509150611fee828286611ff9565b979650505050505050565b6060831561200857508161109e565b8251156120185782518084602001fd5b8160405162461bcd60e51b8152600401610580919061251a565b6000612045612040846125b3565b612582565b905082815283838301111561205957600080fd5b828260208301376000602084830101529392505050565b80356001600160a01b038116811461208757600080fd5b919050565b60008083601f84011261209e57600080fd5b50813567ffffffffffffffff8111156120b657600080fd5b6020830191508360208285010111156120ce57600080fd5b9250929050565b600082601f8301126120e657600080fd5b61109e83833560208501612032565b60006020828403121561210757600080fd5b61109e82612070565b60008060008060008060008060c0898b03121561212c57600080fd5b61213589612070565b975061214360208a01612070565b965061215160408a01612070565b955060608901359450608089013567ffffffffffffffff8082111561217557600080fd5b6121818c838d0161208c565b909650945060a08b013591508082111561219a57600080fd5b506121a78b828c0161208c565b999c989b5096995094979396929594505050565b6000806000806000608086880312156121d357600080fd5b6121dc86612070565b94506121ea60208701612070565b935060408601359250606086013567ffffffffffffffff81111561220d57600080fd5b6122198882890161208c565b969995985093965092949392505050565b6000806040838503121561223d57600080fd5b61224683612070565b946020939093013593505050565b60008060006060848603121561226957600080fd5b61227284612070565b925060208401359150604084013567ffffffffffffffff81111561229557600080fd5b8401601f810186136122a657600080fd5b6122b586823560208401612032565b9150509250925092565b6000602082840312156122d157600080fd5b8151801515811461109e57600080fd5b6000602082840312156122f357600080fd5b815167ffffffffffffffff81111561230a57600080fd5b8201601f8101841361231b57600080fd5b8051612329612040826125b3565b81815285602083850101111561233e57600080fd5b61234f826020830160208601612672565b95945050505050565b60008060006060848603121561236d57600080fd5b833567ffffffffffffffff8082111561238557600080fd5b612391878388016120d5565b945060208601359150808211156123a757600080fd5b506123b4868287016120d5565b9250506123c360408501612070565b90509250925092565b6000806000606084860312156123e157600080fd5b833567ffffffffffffffff8111156123f857600080fd5b612404868287016120d5565b935050602084013591506123c360408501612070565b60006020828403121561242c57600080fd5b5051919050565b60008060006060848603121561244857600080fd5b83359250602084013567ffffffffffffffff81111561246657600080fd5b6123b4868287016120d5565b6000806040838503121561248557600080fd5b505080516020909101519092909150565b6000806000606084860312156124ab57600080fd5b83359250602084013591506123c360408501612070565b600082516124d4818460208701612672565b9190910192915050565b600083516124f0818460208801612672565b602f60f81b908301908152835161250e816001840160208801612672565b01600101949350505050565b6020815260008251806020840152612539816040850160208701612672565b601f01601f19169190910160400192915050565b6020808252818101527f4f776e61626c653a2063616c6c6572206973206e6f7420746865206f776e6572604082015260600190565b604051601f8201601f1916810167ffffffffffffffff811182821017156125ab576125ab6126e9565b604052919050565b600067ffffffffffffffff8211156125cd576125cd6126e9565b50601f01601f191660200190565b600082198211156125ee576125ee6126bd565b500190565b60008261261057634e487b7160e01b600052601260045260246000fd5b500490565b600081600019048311821515161561262f5761262f6126bd565b500290565b600082821015612646576126466126bd565b500390565b8051602080830151919081101561266c576000198160200360031b1b821691505b50919050565b60005b8381101561268d578181015183820152602001612675565b8381111561269c576000848401525b50505050565b60006000198214156126b6576126b66126bd565b5060010190565b634e487b7160e01b600052601160045260246000fd5b634e487b7160e01b600052603260045260246000fd5b634e487b7160e01b600052604160045260246000fdfea26469706673582212205b684efa8e233e1f11428f6274d12b8ebf723e5538d70adb8c088f6de384207264736f6c63430008060033",
  "devdoc": {
    "kind": "dev",
    "methods": {
      "claimRewards(address)": {
        "details": "Sync rewards and claim them",
        "params": {
          "account": "address Account whose stake rewards will be synced and claimed."
        }
      },
      "constructor": {
        "details": "Provide NFT contract address. Transfer owner role to the new owner address.  At deployment, it also registers the lock contract as an ERC777 recipient.",
        "params": {
          "_lockToken": "address Address of the stake token xHOPR.",
          "_newOwner": "address Address of the new owner. This new owner can reclaim any ERC20 and ERC721 token being accidentally sent to the lock contract. ",
          "_nftAddress": "address Address of the NFT contract.",
          "_rewardToken": "address Address of the reward token wxHOPR."
        }
      },
      "getCumulatedRewardsIncrement(address)": {
        "details": "Returns the increment of cumulated rewards during the lastSyncTimestamp and current block.timestamp. ",
        "params": {
          "_account": "address Address of the account whose rewards will be calculated."
        }
      },
      "isNftTypeAndRankRedeemed1(string,string,address)": {
        "details": "Given NFT name type and rank name (as in HoprBoost) returns if the hodler has redeemed such an NFT ",
        "params": {
          "hodler": "address Address of an account that stakes xHOPR tokens and/or redeems its HoprBoost NFT.",
          "nftRank": "string Rank name of the HoprBoost NFT.",
          "nftType": "string Type name of the HoprBoost NFT."
        }
      },
      "isNftTypeAndRankRedeemed2(uint256,string,address)": {
        "details": "Given NFT type index and rank name (as in HoprBoost) returns if the hodler has redeemed such an NFT ",
        "params": {
          "hodler": "address Address of an account that stakes xHOPR tokens and/or redeems its HoprBoost NFT.",
          "nftRank": "string Rank name of the HoprBoost NFT.",
          "nftTypeIndex": "uint256 Type index of the HoprBoost NFT."
        }
      },
      "isNftTypeAndRankRedeemed3(uint256,uint256,address)": {
        "details": "Given NFT type index and the boost numerator (as in HoprBoost) returns if the hodler has redeemed such an NFT ",
        "params": {
          "boostNumerator": "uint256 Boost numerator of the HoprBoost NFT.",
          "hodler": "address Address of an account that stakes xHOPR tokens and/or redeems its HoprBoost NFT.",
          "nftTypeIndex": "uint256 Type index of the HoprBoost NFT."
        }
      },
      "isNftTypeAndRankRedeemed4(string,uint256,address)": {
        "details": "Given NFT type name and the boost numerator (as in HoprBoost) returns if the hodler has redeemed such an NFT ",
        "params": {
          "boostNumerator": "uint256 Boost numerator of the HoprBoost NFT.",
          "hodler": "address Address of an account that stakes xHOPR tokens and/or redeems its HoprBoost NFT.",
          "nftType": "string Type name of the HoprBoost NFT."
        }
      },
      "onERC721Received(address,address,uint256,bytes)": {
        "details": "Whenever a boost `tokenId` token is transferred to this contract via {IERC721-safeTransferFrom} when redeeming, this function is called. Boost factor associated with the  It must return its Solidity selector to confirm the token transfer upon success.",
        "params": {
          "data": "bytes hex information provided by the token holder (if any)",
          "from": "address token holder address",
          "operator": "address operator requesting the transfer",
          "tokenId": "uint256 amount of tokens to transfer"
        }
      },
      "onTokenTransfer(address,uint256,bytes)": {
        "details": "ERC677 hook. Token holders can send their tokens with `transferAndCall` to the stake contract.   After PROGRAM_END, it refuses tokens; Before PROGRAM_END, it accepts tokens xHOPR token, sync  Account state, and update totalLocked. ",
        "params": {
          "_data": "bytes Data being sent along with token transfer",
          "_from": "address Address of tokens sender",
          "_value": "uint256 token amount being transferred"
        }
      },
      "owner()": {
        "details": "Returns the address of the current owner."
      },
      "reclaimErc20Tokens(address)": {
        "details": "Reclaim any ERC20 token being accidentally sent to the contract.",
        "params": {
          "tokenAddress": "address ERC20 token address."
        }
      },
      "reclaimErc721Tokens(address,uint256)": {
        "details": "Reclaim any ERC721 token being accidentally sent to the contract.",
        "params": {
          "tokenAddress": "address ERC721 token address."
        }
      },
      "renounceOwnership()": {
        "details": "Leaves the contract without owner. It will not be possible to call `onlyOwner` functions anymore. Can only be called by the current owner. NOTE: Renouncing ownership will leave the contract without an owner, thereby removing any functionality that is only available to the owner."
      },
      "stakedHoprTokens(address)": {
        "details": "Shortcut that returns the actual stake of an account. ",
        "params": {
          "_account": "address Address of the staker account."
        }
      },
      "sync(address)": {
        "details": "Manually sync account's reward states",
        "params": {
          "account": "address Account whose stake rewards will be synced."
        }
      },
      "tokensReceived(address,address,address,uint256,bytes,bytes)": {
        "details": "ERC777 hook. To receive wxHOPR to fuel the reward pool with `send()` method. It updates the availableReward by tokenAmount.",
        "params": {
          "amount": "uint256 amount of tokens to transfer",
          "from": "address token holder address",
          "operator": "address operator requesting the transfer",
          "operatorData": "bytes extra information provided by the operator (if any)",
          "to": "address recipient address",
          "userData": "bytes hex information provided by the token holder (if any)"
        }
      },
      "transferOwnership(address)": {
        "details": "Transfers ownership of the contract to a new account (`newOwner`). Can only be called by the current owner."
      },
      "unlock()": {
        "details": "Unlock staking for caller"
      },
      "unlockFor(address)": {
        "details": "Unlock staking for a given account",
        "params": {
          "account": "address Account that staked tokens."
        }
      }
    },
    "version": 1
  },
  "userdoc": {
    "kind": "user",
    "methods": {
      "claimRewards(address)": {
        "notice": "public function of ``_sync`` + ``_claim``"
      },
      "sync(address)": {
        "notice": "public function of ``_sync``."
      }
    },
    "version": 1
  },
  "storageLayout": {
    "storage": [
      {
        "astId": 565,
        "contract": "contracts/HoprStake2.sol:HoprStake2",
        "label": "_owner",
        "offset": 0,
        "slot": "0",
        "type": "t_address"
      },
      {
        "astId": 672,
        "contract": "contracts/HoprStake2.sol:HoprStake2",
        "label": "_status",
        "offset": 0,
        "slot": "1",
        "type": "t_uint256"
      },
      {
        "astId": 7248,
        "contract": "contracts/HoprStake2.sol:HoprStake2",
        "label": "LOCK_TOKEN",
        "offset": 0,
        "slot": "2",
        "type": "t_address"
      },
      {
        "astId": 7251,
        "contract": "contracts/HoprStake2.sol:HoprStake2",
        "label": "REWARD_TOKEN",
        "offset": 0,
        "slot": "3",
        "type": "t_address"
      },
      {
        "astId": 7257,
        "contract": "contracts/HoprStake2.sol:HoprStake2",
        "label": "NFT_CONTRACT",
        "offset": 0,
        "slot": "4",
        "type": "t_contract(IHoprBoost)11866"
      },
      {
        "astId": 7263,
        "contract": "contracts/HoprStake2.sol:HoprStake2",
        "label": "redeemedNft",
        "offset": 0,
        "slot": "5",
        "type": "t_mapping(t_address,t_mapping(t_uint256,t_uint256))"
      },
      {
        "astId": 7267,
        "contract": "contracts/HoprStake2.sol:HoprStake2",
        "label": "redeemedNftIndex",
        "offset": 0,
        "slot": "6",
        "type": "t_mapping(t_address,t_uint256)"
      },
      {
        "astId": 7273,
        "contract": "contracts/HoprStake2.sol:HoprStake2",
        "label": "redeemedFactor",
        "offset": 0,
        "slot": "7",
        "type": "t_mapping(t_address,t_mapping(t_uint256,t_uint256))"
      },
      {
        "astId": 7277,
        "contract": "contracts/HoprStake2.sol:HoprStake2",
        "label": "redeemedFactorIndex",
        "offset": 0,
        "slot": "8",
        "type": "t_mapping(t_address,t_uint256)"
      },
      {
        "astId": 7282,
        "contract": "contracts/HoprStake2.sol:HoprStake2",
        "label": "accounts",
        "offset": 0,
        "slot": "9",
        "type": "t_mapping(t_address,t_struct(Account)7230_storage)"
      },
      {
        "astId": 7284,
        "contract": "contracts/HoprStake2.sol:HoprStake2",
        "label": "totalLocked",
        "offset": 0,
        "slot": "10",
        "type": "t_uint256"
      },
      {
        "astId": 7286,
        "contract": "contracts/HoprStake2.sol:HoprStake2",
        "label": "availableReward",
        "offset": 0,
        "slot": "11",
        "type": "t_uint256"
      }
    ],
    "types": {
      "t_address": {
        "encoding": "inplace",
        "label": "address",
        "numberOfBytes": "20"
      },
      "t_contract(IHoprBoost)11866": {
        "encoding": "inplace",
        "label": "contract IHoprBoost",
        "numberOfBytes": "20"
      },
      "t_mapping(t_address,t_mapping(t_uint256,t_uint256))": {
        "encoding": "mapping",
        "key": "t_address",
        "label": "mapping(address => mapping(uint256 => uint256))",
        "numberOfBytes": "32",
        "value": "t_mapping(t_uint256,t_uint256)"
      },
      "t_mapping(t_address,t_struct(Account)7230_storage)": {
        "encoding": "mapping",
        "key": "t_address",
        "label": "mapping(address => struct HoprStake2.Account)",
        "numberOfBytes": "32",
        "value": "t_struct(Account)7230_storage"
      },
      "t_mapping(t_address,t_uint256)": {
        "encoding": "mapping",
        "key": "t_address",
        "label": "mapping(address => uint256)",
        "numberOfBytes": "32",
        "value": "t_uint256"
      },
      "t_mapping(t_uint256,t_uint256)": {
        "encoding": "mapping",
        "key": "t_uint256",
        "label": "mapping(uint256 => uint256)",
        "numberOfBytes": "32",
        "value": "t_uint256"
      },
      "t_struct(Account)7230_storage": {
        "encoding": "inplace",
        "label": "struct HoprStake2.Account",
        "members": [
          {
            "astId": 7223,
            "contract": "contracts/HoprStake2.sol:HoprStake2",
            "label": "actualLockedTokenAmount",
            "offset": 0,
            "slot": "0",
            "type": "t_uint256"
          },
          {
            "astId": 7225,
            "contract": "contracts/HoprStake2.sol:HoprStake2",
            "label": "lastSyncTimestamp",
            "offset": 0,
            "slot": "1",
            "type": "t_uint256"
          },
          {
            "astId": 7227,
            "contract": "contracts/HoprStake2.sol:HoprStake2",
            "label": "cumulatedRewards",
            "offset": 0,
            "slot": "2",
            "type": "t_uint256"
          },
          {
            "astId": 7229,
            "contract": "contracts/HoprStake2.sol:HoprStake2",
            "label": "claimedRewards",
            "offset": 0,
            "slot": "3",
            "type": "t_uint256"
          }
        ],
        "numberOfBytes": "128"
      },
      "t_uint256": {
        "encoding": "inplace",
        "label": "uint256",
        "numberOfBytes": "32"
      }
    }
  }
}