{
  "address": "0x5FC8d32690cc91D4c39d9d3abcBD16989F875707",
  "abi": [
    {
      "inputs": [
        {
          "internalType": "address",
          "name": "_nftAddress",
          "type": "address"
        },
        {
          "internalType": "address",
          "name": "_newOwner",
          "type": "address"
        },
        {
          "internalType": "address",
          "name": "_lockToken",
          "type": "address"
        },
        {
          "internalType": "address",
          "name": "_rewardToken",
          "type": "address"
        }
      ],
      "stateMutability": "nonpayable",
      "type": "constructor"
    },
    {
      "anonymous": false,
      "inputs": [
        {
          "indexed": true,
          "internalType": "address",
          "name": "account",
          "type": "address"
        },
        {
          "indexed": true,
          "internalType": "uint256",
          "name": "rewardAmount",
          "type": "uint256"
        }
      ],
      "name": "Claimed",
      "type": "event"
    },
    {
      "anonymous": false,
      "inputs": [
        {
          "indexed": true,
          "internalType": "address",
          "name": "previousOwner",
          "type": "address"
        },
        {
          "indexed": true,
          "internalType": "address",
          "name": "newOwner",
          "type": "address"
        }
      ],
      "name": "OwnershipTransferred",
      "type": "event"
    },
    {
      "anonymous": false,
      "inputs": [
        {
          "indexed": true,
          "internalType": "address",
          "name": "account",
          "type": "address"
        },
        {
          "indexed": true,
          "internalType": "uint256",
          "name": "boostTokenId",
          "type": "uint256"
        },
        {
          "indexed": true,
          "internalType": "bool",
          "name": "factorReplaced",
          "type": "bool"
        }
      ],
      "name": "Redeemed",
      "type": "event"
    },
    {
      "anonymous": false,
      "inputs": [
        {
          "indexed": true,
          "internalType": "address",
          "name": "account",
          "type": "address"
        },
        {
          "indexed": true,
          "internalType": "uint256",
          "name": "actualAmount",
          "type": "uint256"
        },
        {
          "indexed": true,
          "internalType": "uint256",
          "name": "virtualAmount",
          "type": "uint256"
        }
      ],
      "name": "Released",
      "type": "event"
    },
    {
      "anonymous": false,
      "inputs": [
        {
          "indexed": true,
          "internalType": "uint256",
          "name": "amount",
          "type": "uint256"
        }
      ],
      "name": "RewardFueled",
      "type": "event"
    },
    {
      "anonymous": false,
      "inputs": [
        {
          "indexed": true,
          "internalType": "address",
          "name": "account",
          "type": "address"
        },
        {
          "indexed": true,
          "internalType": "uint256",
          "name": "actualAmount",
          "type": "uint256"
        },
        {
          "indexed": true,
          "internalType": "uint256",
          "name": "virtualAmount",
          "type": "uint256"
        }
      ],
      "name": "Staked",
      "type": "event"
    },
    {
      "anonymous": false,
      "inputs": [
        {
          "indexed": true,
          "internalType": "address",
          "name": "account",
          "type": "address"
        },
        {
          "indexed": true,
          "internalType": "uint256",
          "name": "increment",
          "type": "uint256"
        }
      ],
      "name": "Sync",
      "type": "event"
    },
    {
      "inputs": [],
      "name": "BASIC_FACTOR_NUMERATOR",
      "outputs": [
        {
          "internalType": "uint256",
          "name": "",
          "type": "uint256"
        }
      ],
      "stateMutability": "view",
      "type": "function"
    },
    {
      "inputs": [],
      "name": "BASIC_START",
      "outputs": [
        {
          "internalType": "uint256",
          "name": "",
          "type": "uint256"
        }
      ],
      "stateMutability": "view",
      "type": "function"
    },
    {
      "inputs": [],
      "name": "BOOST_CAP",
      "outputs": [
        {
          "internalType": "uint256",
          "name": "",
          "type": "uint256"
        }
      ],
      "stateMutability": "view",
      "type": "function"
    },
    {
      "inputs": [],
      "name": "FACTOR_DENOMINATOR",
      "outputs": [
        {
          "internalType": "uint256",
          "name": "",
          "type": "uint256"
        }
      ],
      "stateMutability": "view",
      "type": "function"
    },
    {
      "inputs": [],
      "name": "LOCK_TOKEN",
      "outputs": [
        {
          "internalType": "address",
          "name": "",
          "type": "address"
        }
      ],
      "stateMutability": "view",
      "type": "function"
    },
    {
      "inputs": [],
      "name": "PROGRAM_END",
      "outputs": [
        {
          "internalType": "uint256",
          "name": "",
          "type": "uint256"
        }
      ],
      "stateMutability": "view",
      "type": "function"
    },
    {
      "inputs": [],
      "name": "REWARD_TOKEN",
      "outputs": [
        {
          "internalType": "address",
          "name": "",
          "type": "address"
        }
      ],
      "stateMutability": "view",
      "type": "function"
    },
    {
      "inputs": [],
      "name": "SEED_FACTOR_NUMERATOR",
      "outputs": [
        {
          "internalType": "uint256",
          "name": "",
          "type": "uint256"
        }
      ],
      "stateMutability": "view",
      "type": "function"
    },
    {
      "inputs": [],
      "name": "SEED_START",
      "outputs": [
        {
          "internalType": "uint256",
          "name": "",
          "type": "uint256"
        }
      ],
      "stateMutability": "view",
      "type": "function"
    },
    {
      "inputs": [
        {
          "internalType": "address",
          "name": "",
          "type": "address"
        }
      ],
      "name": "accounts",
      "outputs": [
        {
          "internalType": "uint256",
          "name": "actualLockedTokenAmount",
          "type": "uint256"
        },
        {
          "internalType": "uint256",
          "name": "virtualLockedTokenAmount",
          "type": "uint256"
        },
        {
          "internalType": "uint256",
          "name": "lastSyncTimestamp",
          "type": "uint256"
        },
        {
          "internalType": "uint256",
          "name": "cumulatedRewards",
          "type": "uint256"
        },
        {
          "internalType": "uint256",
          "name": "claimedRewards",
          "type": "uint256"
        }
      ],
      "stateMutability": "view",
      "type": "function"
    },
    {
      "inputs": [],
      "name": "availableReward",
      "outputs": [
        {
          "internalType": "uint256",
          "name": "",
          "type": "uint256"
        }
      ],
      "stateMutability": "view",
      "type": "function"
    },
    {
      "inputs": [
        {
          "internalType": "address",
          "name": "account",
          "type": "address"
        }
      ],
      "name": "claimRewards",
      "outputs": [],
      "stateMutability": "nonpayable",
      "type": "function"
    },
    {
      "inputs": [
        {
          "internalType": "address",
          "name": "_account",
          "type": "address"
        }
      ],
      "name": "getCumulatedRewardsIncrement",
      "outputs": [
        {
          "internalType": "uint256",
          "name": "",
          "type": "uint256"
        }
      ],
      "stateMutability": "view",
      "type": "function"
    },
    {
      "inputs": [
        {
          "internalType": "address[]",
          "name": "investors",
          "type": "address[]"
        },
        {
          "internalType": "uint256[]",
          "name": "caps",
          "type": "uint256[]"
        }
      ],
      "name": "lock",
      "outputs": [],
      "stateMutability": "nonpayable",
      "type": "function"
    },
    {
      "inputs": [],
      "name": "nftContract",
      "outputs": [
        {
          "internalType": "contract IHoprBoost",
          "name": "",
          "type": "address"
        }
      ],
      "stateMutability": "view",
      "type": "function"
    },
    {
      "inputs": [
        {
          "internalType": "address",
          "name": "operator",
          "type": "address"
        },
        {
          "internalType": "address",
          "name": "from",
          "type": "address"
        },
        {
          "internalType": "uint256",
          "name": "tokenId",
          "type": "uint256"
        },
        {
          "internalType": "bytes",
          "name": "data",
          "type": "bytes"
        }
      ],
      "name": "onERC721Received",
      "outputs": [
        {
          "internalType": "bytes4",
          "name": "",
          "type": "bytes4"
        }
      ],
      "stateMutability": "nonpayable",
      "type": "function"
    },
    {
      "inputs": [
        {
          "internalType": "address",
          "name": "_from",
          "type": "address"
        },
        {
          "internalType": "uint256",
          "name": "_value",
          "type": "uint256"
        },
        {
          "internalType": "bytes",
          "name": "_data",
          "type": "bytes"
        }
      ],
      "name": "onTokenTransfer",
      "outputs": [
        {
          "internalType": "bool",
          "name": "",
          "type": "bool"
        }
      ],
      "stateMutability": "nonpayable",
      "type": "function"
    },
    {
      "inputs": [],
      "name": "owner",
      "outputs": [
        {
          "internalType": "address",
          "name": "",
          "type": "address"
        }
      ],
      "stateMutability": "view",
      "type": "function"
    },
    {
      "inputs": [
        {
          "internalType": "address",
          "name": "tokenAddress",
          "type": "address"
        }
      ],
      "name": "reclaimErc20Tokens",
      "outputs": [],
      "stateMutability": "nonpayable",
      "type": "function"
    },
    {
      "inputs": [
        {
          "internalType": "address",
          "name": "tokenAddress",
          "type": "address"
        },
        {
          "internalType": "uint256",
          "name": "tokenId",
          "type": "uint256"
        }
      ],
      "name": "reclaimErc721Tokens",
      "outputs": [],
      "stateMutability": "nonpayable",
      "type": "function"
    },
    {
      "inputs": [
        {
          "internalType": "address",
          "name": "",
          "type": "address"
        },
        {
          "internalType": "uint256",
          "name": "",
          "type": "uint256"
        }
      ],
      "name": "redeemedFactor",
      "outputs": [
        {
          "internalType": "uint256",
          "name": "",
          "type": "uint256"
        }
      ],
      "stateMutability": "view",
      "type": "function"
    },
    {
      "inputs": [
        {
          "internalType": "address",
          "name": "",
          "type": "address"
        }
      ],
      "name": "redeemedFactorIndex",
      "outputs": [
        {
          "internalType": "uint256",
          "name": "",
          "type": "uint256"
        }
      ],
      "stateMutability": "view",
      "type": "function"
    },
    {
      "inputs": [
        {
          "internalType": "address",
          "name": "",
          "type": "address"
        },
        {
          "internalType": "uint256",
          "name": "",
          "type": "uint256"
        }
      ],
      "name": "redeemedNft",
      "outputs": [
        {
          "internalType": "uint256",
          "name": "",
          "type": "uint256"
        }
      ],
      "stateMutability": "view",
      "type": "function"
    },
    {
      "inputs": [
        {
          "internalType": "address",
          "name": "",
          "type": "address"
        }
      ],
      "name": "redeemedNftIndex",
      "outputs": [
        {
          "internalType": "uint256",
          "name": "",
          "type": "uint256"
        }
      ],
      "stateMutability": "view",
      "type": "function"
    },
    {
      "inputs": [],
      "name": "renounceOwnership",
      "outputs": [],
      "stateMutability": "nonpayable",
      "type": "function"
    },
    {
      "inputs": [
        {
          "internalType": "address",
          "name": "account",
          "type": "address"
        }
      ],
      "name": "sync",
      "outputs": [],
      "stateMutability": "nonpayable",
      "type": "function"
    },
    {
      "inputs": [
        {
          "internalType": "address",
          "name": "operator",
          "type": "address"
        },
        {
          "internalType": "address",
          "name": "from",
          "type": "address"
        },
        {
          "internalType": "address",
          "name": "to",
          "type": "address"
        },
        {
          "internalType": "uint256",
          "name": "amount",
          "type": "uint256"
        },
        {
          "internalType": "bytes",
          "name": "userData",
          "type": "bytes"
        },
        {
          "internalType": "bytes",
          "name": "operatorData",
          "type": "bytes"
        }
      ],
      "name": "tokensReceived",
      "outputs": [],
      "stateMutability": "nonpayable",
      "type": "function"
    },
    {
      "inputs": [],
      "name": "totalLocked",
      "outputs": [
        {
          "internalType": "uint256",
          "name": "",
          "type": "uint256"
        }
      ],
      "stateMutability": "view",
      "type": "function"
    },
    {
      "inputs": [
        {
          "internalType": "address",
          "name": "newOwner",
          "type": "address"
        }
      ],
      "name": "transferOwnership",
      "outputs": [],
      "stateMutability": "nonpayable",
      "type": "function"
    },
    {
      "inputs": [
        {
          "internalType": "address",
          "name": "account",
          "type": "address"
        }
      ],
      "name": "unlock",
      "outputs": [],
      "stateMutability": "nonpayable",
      "type": "function"
    }
  ],
  "transactionHash": "0x1af655280e51ea6686cffca7f0145bd41a66605ac89522481fedcf40e59fe269",
  "args": [
    "0xDc64a140Aa3E981100a9becA4E685f962f0cF6C9",
    "0x70997970C51812dc3A010C7d01b50e0d17dc79C8",
    "0x9fE46736679d2D9a65F0992F2272dE9f3c7fa6e0",
    "0xCf7Ed3AccA5a467e9e704C703E8D87F634fB0Fc9"
  ],
  "solcInputHash": "38fc2190ccf57616284f5e0aa38db4b5",
  "bytecode": "0x6080604052600280546001600160a01b031990811673d057604a14982fe8d88c5fc25aac3267ea142a08179091556003805490911673d4fdec44db9d44b8f2b6d529620f9c0c7066a2c11790553480156200005957600080fd5b5060405162002446380380620024468339810160408190526200007c91620002cc565b62000087336200018a565b600180554660648114620000c657600280546001600160a01b038086166001600160a01b03199283161790925560038054928516929091169190911790555b600480546001600160a01b0319166001600160a01b038716179055620000ec84620001da565b6040516329965a1d60e01b815230600482018190527fb281fc8c12954d22544db45de3159a39272895b169a852b314f9cc762e44c53b60248301526044820152731820a4b7618bde71dce8cdc73aab6c95905fad24906329965a1d90606401600060405180830381600087803b1580156200016657600080fd5b505af11580156200017b573d6000803e3d6000fd5b50505050505050505062000329565b600080546001600160a01b038381166001600160a01b0319831681178455604051919092169283917f8be0079c531659141344cd1fd0a4f28419497f9722a3daafe3b4186f6b6457e09190a35050565b6000546001600160a01b031633146200023a5760405162461bcd60e51b815260206004820181905260248201527f4f776e61626c653a2063616c6c6572206973206e6f7420746865206f776e657260448201526064015b60405180910390fd5b6001600160a01b038116620002a15760405162461bcd60e51b815260206004820152602660248201527f4f776e61626c653a206e6577206f776e657220697320746865207a65726f206160448201526564647265737360d01b606482015260840162000231565b620002ac816200018a565b50565b80516001600160a01b0381168114620002c757600080fd5b919050565b60008060008060808587031215620002e357600080fd5b620002ee85620002af565b9350620002fe60208601620002af565b92506200030e60408601620002af565b91506200031e60608601620002af565b905092959194509250565b61210d80620003396000396000f3fe608060405234801561001057600080fd5b50600436106101d95760003560e01c806370af093411610104578063cbffa3c7116100a2578063ef0526a211610071578063ef0526a21461046e578063ef5cfb8c1461047f578063f20c912414610492578063f2fde38b1461049d57600080fd5b8063cbffa3c71461041d578063d0c02d6314610428578063d0da680114610448578063d56d229d1461045b57600080fd5b80638da5cb5b116100de5780638da5cb5b146103af57806399248ea7146103d4578063a4c0ed36146103e7578063a58411941461040a57600080fd5b806370af093414610369578063715018a61461037c57806381128c1d1461038457600080fd5b806348c64e411161017c5780635e5c06e21161014b5780635e5c06e2146102dc5780635ef73d58146103415780636067bc151461034d5780636aa8d4cf1461036057600080fd5b806348c64e41146102a45780634ad84b34146102b757806356891412146102c05780635c3c71f4146102c957600080fd5b8063150b7a02116101b8578063150b7a021461023c5780631f014d83146102685780632f6c493c146102885780632f9984681461029b57600080fd5b806223de29146101de5780630a1a257a146101f3578063112376dc14610231575b600080fd5b6101f16101ec366004611c2d565b6104b0565b005b61021e610201366004611d47565b600560209081526000928352604080842090915290825290205481565b6040519081526020015b60405180910390f35b61021e636128d3c081565b61024f61024a366004611cd8565b61065d565b6040516001600160e01b03199091168152602001610228565b61021e610276366004611c12565b60086020526000908152604090205481565b6101f1610296366004611c12565b610b7f565b61021e611b7881565b6101f16102b2366004611d47565b610d6d565b61021e600b5481565b61021e600a5481565b6101f16102d7366004611e3c565b610e80565b6103196102ea366004611c12565b600960205260009081526040902080546001820154600283015460038401546004909401549293919290919085565b604080519586526020860194909452928401919091526060830152608082015260a001610228565b61021e64e8d4a5100081565b6101f161035b366004611c12565b611033565b61021e61169b81565b61021e610377366004611c12565b611205565b6101f1611216565b61021e610392366004611d47565b600760209081526000928352604080842090915290825290205481565b6000546001600160a01b03165b6040516001600160a01b039091168152602001610228565b6003546103bc906001600160a01b031681565b6103fa6103f5366004611d71565b61124c565b6040519015158152602001610228565b6101f1610418366004611c12565b611374565b61021e6361e5685081565b61021e610436366004611c12565b60066020526000908152604090205481565b6002546103bc906001600160a01b031681565b6004546103bc906001600160a01b031681565b61021e69d3c21bcecceda100000081565b6101f161048d366004611c12565b611380565b61021e6360fff54081565b6101f16104ab366004611c12565b611392565b6003546001600160a01b0316331461051e5760405162461bcd60e51b815260206004820152602660248201527f486f70725374616b653a2053656e646572206d757374206265207778484f5052604482015265103a37b5b2b760d11b60648201526084015b60405180910390fd5b6001600160a01b038616301461059c5760405162461bcd60e51b815260206004820152603760248201527f486f70725374616b653a204d7573742062652073656e64696e6720746f6b656e60448201527f7320746f20486f70725374616b6520636f6e74726163740000000000000000006064820152608401610515565b6000546001600160a01b038881169116146106115760405162461bcd60e51b815260206004820152602f60248201527f486f70725374616b653a204f6e6c7920616363657074206f776e657220746f2060448201526e70726f76696465207265776172647360881b6064820152608401610515565b84600b60008282546106239190611fda565b909155505060405185907f2bf52bcae319602514e02ff69bbe4b89a19718b96e7867044128ec872419437c90600090a25050505050505050565b6004546000906001600160a01b0316336001600160a01b0316146106e95760405162461bcd60e51b815260206004820152603f60248201527f486f70725374616b653a2043616e6e6f7420536166655472616e73666572467260448201527f6f6d20746f6b656e73206f74686572207468616e20486f7072426f6f73742e006064820152608401610515565b6361e568504211156107555760405162461bcd60e51b815260206004820152602f60248201527f486f70725374616b653a2050726f6772616d20656e6465642c2063616e6e6f7460448201526e103932b232b2b6903137b7b9ba399760891b6064820152608401610515565b61075e8561142a565b6001600160a01b03851660008181526005602090815260408083206006808452828520805486529184529184208990559383529052815460019291906107a5908490611fda565b90915550506004805460405163562317c560e01b81529182018690526000916001600160a01b039091169063562317c59060240160206040518083038186803b1580156107f157600080fd5b505afa158015610805573d6000803e3d6000fd5b505050506040513d601f19601f820116820180604052508101906108299190611eca565b6004805460405163225b377d60e21b815291820188905291925060009182916001600160a01b039091169063896cddf490602401604080518083038186803b15801561087457600080fd5b505afa158015610888573d6000803e3d6000fd5b505050506040513d601f19601f820116820180604052508101906108ac9190611ee3565b91509150804211156109135760405162461bcd60e51b815260206004820152602a60248201527f486f70725374616b653a2043616e6e6f742072656465656d20616e20657870696044820152693932b2103137b7b9ba1760b11b6064820152608401610515565b6001600160a01b038816600090815260086020526040812054905b81811015610ad0576001600160a01b038a811660009081526007602090815260408083208584529091528082205460048054925163225b377d60e21b81529081018e90529093919091169063896cddf490602401604080518083038186803b15801561099957600080fd5b505afa1580156109ad573d6000803e3d6000fd5b505050506040513d601f19601f820116820180604052508101906109d19190611ee3565b506004805460405163562317c560e01b815291820185905291925088916001600160a01b03169063562317c59060240160206040518083038186803b158015610a1957600080fd5b505afa158015610a2d573d6000803e3d6000fd5b505050506040513d601f19601f82011682018060405250810190610a519190611eca565b148015610a5e5750858111155b15610abb576001600160a01b038c1660008181526007602090815260408083208784529091528082208e90555190918d917f066d96cb280fccf3a0a3a5686966a801b2690a32ec98fd2711a4e09f345d935d908490a45050610ad0565b50508080610ac89061207a565b91505061092e565b81811415610b68576001600160a01b038a16600081815260076020908152604080832086845282528083208d905592825260089052908120805460019290610b19908490611fda565b90915550508115610b2b576001610b2e565b60005b1515898b6001600160a01b03167f066d96cb280fccf3a0a3a5686966a801b2690a32ec98fd2711a4e09f345d935d60405160405180910390a45b50630a85bd0160e11b9a9950505050505050505050565b6361e568504211610bee5760405162461bcd60e51b815260206004820152603360248201527f486f70725374616b653a2050726f6772616d206973206f6e676f696e672c206360448201527230b73737ba103ab73637b1b59039ba30b5b29760691b6064820152608401610515565b6001600160a01b03811660009081526009602052604090208054600190910154610c178361142a565b6001600160a01b0383166000908152600960205260408120818155600101819055600a8054849290610c4a908490612033565b90915550610c599050836114b5565b600254610c70906001600160a01b03168484611655565b60005b6001600160a01b038416600090815260066020526040902054811015610d2f57600480546001600160a01b038681166000818152600560209081526040808320888452909152908190205490516323b872dd60e01b815230958101959095526024850191909152604484015216906323b872dd90606401600060405180830381600087803b158015610d0457600080fd5b505af1158015610d18573d6000803e3d6000fd5b505050508080610d279061207a565b915050610c73565b508082846001600160a01b03167f82e416ba72d10e709b5de7ac16f5f49ff1d94f22d55bf582d353d3c313a1e8dd60405160405180910390a4505050565b6000546001600160a01b03163314610d975760405162461bcd60e51b815260040161051590611fa5565b60026001541415610dea5760405162461bcd60e51b815260206004820152601f60248201527f5265656e7472616e637947756172643a207265656e7472616e742063616c6c006044820152606401610515565b60026001556001600160a01b0382166323b872dd30610e116000546001600160a01b031690565b6040516001600160e01b031960e085901b1681526001600160a01b0392831660048201529116602482015260448101849052606401600060405180830381600087803b158015610e6057600080fd5b505af1158015610e74573d6000803e3d6000fd5b50506001805550505050565b6000546001600160a01b03163314610eaa5760405162461bcd60e51b815260040161051590611fa5565b6360fff540421115610ece5760405162461bcd60e51b815260040161051590611f56565b80831115610f1e5760405162461bcd60e51b815260206004820181905260248201527f486f70725374616b653a204c656e67746820646f6573206e6f74206d617463686044820152606401610515565b60005b8381101561102c576000858583818110610f3d57610f3d6120ab565b9050602002016020810190610f529190611c12565b9050838383818110610f6657610f666120ab565b9050602002013560096000836001600160a01b03166001600160a01b031681526020019081526020016000206001016000828254610fa49190611fda565b90915550506001600160a01b038116600090815260096020526040902042600290910155838383818110610fda57610fda6120ab565b905060200201356000826001600160a01b03167f1449c6dd7851abc30abf37f57715f492010519147cc2652fbc38202c18a6ee9060405160405180910390a450806110248161207a565b915050610f21565b5050505050565b6000546001600160a01b0316331461105d5760405162461bcd60e51b815260040161051590611fa5565b600260015414156110b05760405162461bcd60e51b815260206004820152601f60248201527f5265656e7472616e637947756172643a207265656e7472616e742063616c6c006044820152606401610515565b60026001819055546000906001600160a01b038381169116141561115d57600a546002546040516370a0823160e01b81523060048201526001600160a01b03909116906370a082319060240160206040518083038186803b15801561111457600080fd5b505afa158015611128573d6000803e3d6000fd5b505050506040513d601f19601f8201168201806040525081019061114c9190611eca565b6111569190612033565b90506111d7565b6040516370a0823160e01b81523060048201526001600160a01b038316906370a082319060240160206040518083038186803b15801561119c57600080fd5b505afa1580156111b0573d6000803e3d6000fd5b505050506040513d601f19601f820116820180604052508101906111d49190611eca565b90505b6111fd6111ec6000546001600160a01b031690565b6001600160a01b0384169083611655565b505060018055565b6000611210826116ac565b92915050565b6000546001600160a01b031633146112405760405162461bcd60e51b815260040161051590611fa5565b61124a6000611915565b565b6002546000906001600160a01b031633146112be5760405162461bcd60e51b815260206004820152602c60248201527f486f70725374616b653a204f6e6c7920616363657074204c4f434b5f544f4b4560448201526b4e20696e207374616b696e6760a01b6064820152608401610515565b6361e568504211156112e25760405162461bcd60e51b815260040161051590611f56565b6112eb8461142a565b6001600160a01b03841660009081526009602052604081208054859290611313908490611fda565b9250508190555082600a600082825461132c9190611fda565b909155505060405160009084906001600160a01b038716907f1449c6dd7851abc30abf37f57715f492010519147cc2652fbc38202c18a6ee90908490a45060015b9392505050565b61137d8161142a565b50565b6113898161142a565b61137d816114b5565b6000546001600160a01b031633146113bc5760405162461bcd60e51b815260040161051590611fa5565b6001600160a01b0381166114215760405162461bcd60e51b815260206004820152602660248201527f4f776e61626c653a206e6577206f776e657220697320746865207a65726f206160448201526564647265737360d01b6064820152608401610515565b61137d81611915565b6000611435826116ac565b6001600160a01b038316600090815260096020526040812060030180549293508392909190611465908490611fda565b90915550506001600160a01b03821660008181526009602052604080822042600290910155518392917f99869d968ca3581a661f31abb3a6aa70ccec5cdc49855eab174cf9e00a2462db91a35050565b6001600160a01b0381166000908152600960209081526040808320815160a081018352815481526001820154938101939093526002810154918301919091526003810154606083018190526004909101546080830181905291929161151991612033565b90506000811161156b5760405162461bcd60e51b815260206004820152601b60248201527f486f70725374616b653a204e6f7468696e6720746f20636c61696d00000000006044820152606401610515565b6001600160a01b03831660009081526009602052604090206003810154600490910155600b548111156115ec5760405162461bcd60e51b8152602060048201526024808201527f486f70725374616b653a20496e73756666696369656e7420726577617264207060448201526337b7b61760e11b6064820152608401610515565b80600b60008282546115fe9190612033565b909155505060035461161a906001600160a01b03168483611655565b60405181906001600160a01b038516907fd8138f8a3f377c5259ca548e70e4c2de94f129f5a11036a15b69513cba2b426a90600090a3505050565b604080516001600160a01b038416602482015260448082018490528251808303909101815260649091019091526020810180516001600160e01b031663a9059cbb60e01b1790526116a7908490611965565b505050565b6001600160a01b0381166000908152600960209081526040808320815160a08101835281548152600182015493810193909352600281015491830191909152600381015460608301526004015460808201526360fff5404211158061171957506361e56850816040015110155b156117275750600092915050565b80516000906117399061169b90612014565b905060005b6001600160a01b038516600090815260086020526040902054811015611840576001600160a01b0385811660009081526007602090815260408083208584529091528082205460048054925163225b377d60e21b81529081018290529093919091169063896cddf490602401604080518083038186803b1580156117c157600080fd5b505afa1580156117d5573d6000803e3d6000fd5b505050506040513d601f19601f820116820180604052508101906117f99190611ee3565b50855190915081906118159069d3c21bcecceda1000000611a37565b61181f9190612014565b6118299085611fda565b9350505080806118389061207a565b91505061173e565b5064e8d4a510006118706361e5685061186a636128d3c08660400151611a4d90919063ffffffff16565b90611a37565b6118866361e5685061186a42636128d3c0611a4d565b6118909190612033565b611b7884602001516118a29190612014565b6118ac9190612014565b6118cf6361e5685061186a6360fff5408760400151611a4d90919063ffffffff16565b6118e56361e5685061186a426360fff540611a4d565b6118ef9190612033565b6118f99084612014565b6119039190611fda565b61190d9190611ff2565b949350505050565b600080546001600160a01b038381166001600160a01b0319831681178455604051919092169283917f8be0079c531659141344cd1fd0a4f28419497f9722a3daafe3b4186f6b6457e09190a35050565b60006119ba826040518060400160405280602081526020017f5361666545524332303a206c6f772d6c6576656c2063616c6c206661696c6564815250856001600160a01b0316611a5d9092919063ffffffff16565b8051909150156116a757808060200190518101906119d89190611ea8565b6116a75760405162461bcd60e51b815260206004820152602a60248201527f5361666545524332303a204552433230206f7065726174696f6e20646964206e6044820152691bdd081cdd58d8d9595960b21b6064820152608401610515565b6000818310611a46578161136d565b5090919050565b600081831015611a46578161136d565b606061190d848460008585843b611ab65760405162461bcd60e51b815260206004820152601d60248201527f416464726573733a2063616c6c20746f206e6f6e2d636f6e74726163740000006044820152606401610515565b600080866001600160a01b03168587604051611ad29190611f07565b60006040518083038185875af1925050503d8060008114611b0f576040519150601f19603f3d011682016040523d82523d6000602084013e611b14565b606091505b5091509150611b24828286611b2f565b979650505050505050565b60608315611b3e57508161136d565b825115611b4e5782518084602001fd5b8160405162461bcd60e51b81526004016105159190611f23565b80356001600160a01b0381168114611b7f57600080fd5b919050565b60008083601f840112611b9657600080fd5b50813567ffffffffffffffff811115611bae57600080fd5b6020830191508360208260051b8501011115611bc957600080fd5b9250929050565b60008083601f840112611be257600080fd5b50813567ffffffffffffffff811115611bfa57600080fd5b602083019150836020828501011115611bc957600080fd5b600060208284031215611c2457600080fd5b61136d82611b68565b60008060008060008060008060c0898b031215611c4957600080fd5b611c5289611b68565b9750611c6060208a01611b68565b9650611c6e60408a01611b68565b955060608901359450608089013567ffffffffffffffff80821115611c9257600080fd5b611c9e8c838d01611bd0565b909650945060a08b0135915080821115611cb757600080fd5b50611cc48b828c01611bd0565b999c989b5096995094979396929594505050565b600080600080600060808688031215611cf057600080fd5b611cf986611b68565b9450611d0760208701611b68565b935060408601359250606086013567ffffffffffffffff811115611d2a57600080fd5b611d3688828901611bd0565b969995985093965092949392505050565b60008060408385031215611d5a57600080fd5b611d6383611b68565b946020939093013593505050565b600080600060608486031215611d8657600080fd5b611d8f84611b68565b925060208401359150604084013567ffffffffffffffff80821115611db357600080fd5b818601915086601f830112611dc757600080fd5b813581811115611dd957611dd96120c1565b604051601f8201601f19908116603f01168101908382118183101715611e0157611e016120c1565b81604052828152896020848701011115611e1a57600080fd5b8260208601602083013760006020848301015280955050505050509250925092565b60008060008060408587031215611e5257600080fd5b843567ffffffffffffffff80821115611e6a57600080fd5b611e7688838901611b84565b90965094506020870135915080821115611e8f57600080fd5b50611e9c87828801611b84565b95989497509550505050565b600060208284031215611eba57600080fd5b8151801515811461136d57600080fd5b600060208284031215611edc57600080fd5b5051919050565b60008060408385031215611ef657600080fd5b505080516020909101519092909150565b60008251611f1981846020870161204a565b9190910192915050565b6020815260008251806020840152611f4281604085016020870161204a565b601f01601f19169190910160400192915050565b6020808252602f908201527f486f70725374616b653a2050726f6772616d20656e6465642c2063616e6e6f7460408201526e1039ba30b5b29030b73cb6b7b9329760891b606082015260800190565b6020808252818101527f4f776e61626c653a2063616c6c6572206973206e6f7420746865206f776e6572604082015260600190565b60008219821115611fed57611fed612095565b500190565b60008261200f57634e487b7160e01b600052601260045260246000fd5b500490565b600081600019048311821515161561202e5761202e612095565b500290565b60008282101561204557612045612095565b500390565b60005b8381101561206557818101518382015260200161204d565b83811115612074576000848401525b50505050565b600060001982141561208e5761208e612095565b5060010190565b634e487b7160e01b600052601160045260246000fd5b634e487b7160e01b600052603260045260246000fd5b634e487b7160e01b600052604160045260246000fdfea26469706673582212207e3eee329fb865e9474bd93a781deed1ed72002f2929cfffa7cd2da1608a565764736f6c63430008060033",
  "devdoc": {
    "kind": "dev",
    "methods": {
      "claimRewards(address)": {
        "details": "Sync rewards and claim them",
        "params": {
          "account": "address Account whose stake rewards will be synced and claimed."
        }
      },
      "constructor": {
        "details": "Provide NFT contract address. Transfer owner role to the new owner address.  At deployment, it also registers the lock contract as an ERC777 recipient. ",
        "params": {
          "_newOwner": "address Address of the new owner. This new owner can reclaim any ERC20 and ERC721 token being accidentally sent to the lock contract. ",
          "_nftAddress": "address Address of the NFT contract."
        }
      },
      "getCumulatedRewardsIncrement(address)": {
        "details": "Returns the increment of cumulated rewards during the lastSyncTimestamp and current block.timestamp. ",
        "params": {
          "_account": "address Address of the account whose rewards will be calculated."
        }
      },
      "lock(address[],uint256[])": {
        "details": "Only owner can call this function before program starts to store virtual lock for seed investors.  If the investor hasn't locked any token in this account, create an \"Account\" with {0, caps[i], block.timestamp, 0, 0}.  If the investor has locked some tokens in this account, update its virtualLockedTokenAmount.",
        "params": {
          "caps": "uint256[] Array of their virtually locked tokens.",
          "investors": "address[] Array of seed investors accounts."
        }
      },
      "onERC721Received(address,address,uint256,bytes)": {
        "details": "Whenever a boost `tokenId` token is transferred to this contract via {IERC721-safeTransferFrom} when redeeming, this function is called. Boost factor associated with the  It must return its Solidity selector to confirm the token transfer upon success.",
        "params": {
          "data": "bytes hex information provided by the token holder (if any)",
          "from": "address token holder address",
          "operator": "address operator requesting the transfer",
          "tokenId": "uint256 amount of tokens to transfer"
        }
      },
      "onTokenTransfer(address,uint256,bytes)": {
        "details": "ERC677 hook. Token holders can send their tokens with `transferAndCall` to the stake contract.   After PROGRAM_END, it refuses tokens; Before PROGRAM_END, it accepts tokens xHOPR token, sync  Account state, and update totalLocked. ",
        "params": {
          "_data": "bytes Data being sent along with token transfer",
          "_from": "address Address of tokens sender",
          "_value": "uint256 token amount being transferred"
        }
      },
      "owner()": {
        "details": "Returns the address of the current owner."
      },
      "reclaimErc20Tokens(address)": {
        "details": "Reclaim any ERC20 token being accidentally sent to the contract.",
        "params": {
          "tokenAddress": "address ERC20 token address."
        }
      },
      "reclaimErc721Tokens(address,uint256)": {
        "details": "Reclaim any ERC721 token being accidentally sent to the contract.",
        "params": {
          "tokenAddress": "address ERC721 token address."
        }
      },
      "renounceOwnership()": {
        "details": "Leaves the contract without owner. It will not be possible to call `onlyOwner` functions anymore. Can only be called by the current owner. NOTE: Renouncing ownership will leave the contract without an owner, thereby removing any functionality that is only available to the owner."
      },
      "sync(address)": {
        "details": "Manually sync account's reward states",
        "params": {
          "account": "address Account whose stake rewards will be synced."
        }
      },
      "tokensReceived(address,address,address,uint256,bytes,bytes)": {
        "details": "ERC777 hook. To receive wxHOPR to fuel the reward pool with `send()` method. It updates the availableReward by tokenAmount.",
        "params": {
          "amount": "uint256 amount of tokens to transfer",
          "from": "address token holder address",
          "operator": "address operator requesting the transfer",
          "operatorData": "bytes extra information provided by the operator (if any)",
          "to": "address recipient address",
          "userData": "bytes hex information provided by the token holder (if any)"
        }
      },
      "transferOwnership(address)": {
        "details": "Transfers ownership of the contract to a new account (`newOwner`). Can only be called by the current owner."
      },
      "unlock(address)": {
        "details": "Unlock staking",
        "params": {
          "account": "address Account that staked tokens."
        }
      }
    },
    "version": 1
  },
  "userdoc": {
    "kind": "user",
    "methods": {
      "claimRewards(address)": {
        "notice": "public function of ``_sync`` + ``_claim``"
      },
      "sync(address)": {
        "notice": "public function of ``_sync``."
      }
    },
    "version": 1
  },
  "storageLayout": {
    "storage": [
      {
        "astId": 565,
        "contract": "contracts/HoprStake.sol:HoprStake",
        "label": "_owner",
        "offset": 0,
        "slot": "0",
        "type": "t_address"
      },
      {
        "astId": 672,
        "contract": "contracts/HoprStake.sol:HoprStake",
        "label": "_status",
        "offset": 0,
        "slot": "1",
        "type": "t_uint256"
      },
      {
        "astId": 6188,
        "contract": "contracts/HoprStake.sol:HoprStake",
        "label": "LOCK_TOKEN",
        "offset": 0,
        "slot": "2",
        "type": "t_address"
      },
      {
        "astId": 6191,
        "contract": "contracts/HoprStake.sol:HoprStake",
        "label": "REWARD_TOKEN",
        "offset": 0,
        "slot": "3",
        "type": "t_address"
      },
      {
        "astId": 6194,
        "contract": "contracts/HoprStake.sol:HoprStake",
        "label": "nftContract",
        "offset": 0,
        "slot": "4",
        "type": "t_contract(IHoprBoost)7150"
      },
      {
        "astId": 6200,
        "contract": "contracts/HoprStake.sol:HoprStake",
        "label": "redeemedNft",
        "offset": 0,
        "slot": "5",
        "type": "t_mapping(t_address,t_mapping(t_uint256,t_uint256))"
      },
      {
        "astId": 6204,
        "contract": "contracts/HoprStake.sol:HoprStake",
        "label": "redeemedNftIndex",
        "offset": 0,
        "slot": "6",
        "type": "t_mapping(t_address,t_uint256)"
      },
      {
        "astId": 6210,
        "contract": "contracts/HoprStake.sol:HoprStake",
        "label": "redeemedFactor",
        "offset": 0,
        "slot": "7",
        "type": "t_mapping(t_address,t_mapping(t_uint256,t_uint256))"
      },
      {
        "astId": 6214,
        "contract": "contracts/HoprStake.sol:HoprStake",
        "label": "redeemedFactorIndex",
        "offset": 0,
        "slot": "8",
        "type": "t_mapping(t_address,t_uint256)"
      },
      {
        "astId": 6219,
        "contract": "contracts/HoprStake.sol:HoprStake",
        "label": "accounts",
        "offset": 0,
        "slot": "9",
        "type": "t_mapping(t_address,t_struct(Account)6164_storage)"
      },
      {
        "astId": 6221,
        "contract": "contracts/HoprStake.sol:HoprStake",
        "label": "totalLocked",
        "offset": 0,
        "slot": "10",
        "type": "t_uint256"
      },
      {
        "astId": 6223,
        "contract": "contracts/HoprStake.sol:HoprStake",
        "label": "availableReward",
        "offset": 0,
        "slot": "11",
        "type": "t_uint256"
      }
    ],
    "types": {
      "t_address": {
        "encoding": "inplace",
        "label": "address",
        "numberOfBytes": "20"
      },
      "t_contract(IHoprBoost)7150": {
        "encoding": "inplace",
        "label": "contract IHoprBoost",
        "numberOfBytes": "20"
      },
      "t_mapping(t_address,t_mapping(t_uint256,t_uint256))": {
        "encoding": "mapping",
        "key": "t_address",
        "label": "mapping(address => mapping(uint256 => uint256))",
        "numberOfBytes": "32",
        "value": "t_mapping(t_uint256,t_uint256)"
      },
      "t_mapping(t_address,t_struct(Account)6164_storage)": {
        "encoding": "mapping",
        "key": "t_address",
        "label": "mapping(address => struct HoprStake.Account)",
        "numberOfBytes": "32",
        "value": "t_struct(Account)6164_storage"
      },
      "t_mapping(t_address,t_uint256)": {
        "encoding": "mapping",
        "key": "t_address",
        "label": "mapping(address => uint256)",
        "numberOfBytes": "32",
        "value": "t_uint256"
      },
      "t_mapping(t_uint256,t_uint256)": {
        "encoding": "mapping",
        "key": "t_uint256",
        "label": "mapping(uint256 => uint256)",
        "numberOfBytes": "32",
        "value": "t_uint256"
      },
      "t_struct(Account)6164_storage": {
        "encoding": "inplace",
        "label": "struct HoprStake.Account",
        "members": [
          {
            "astId": 6155,
            "contract": "contracts/HoprStake.sol:HoprStake",
            "label": "actualLockedTokenAmount",
            "offset": 0,
            "slot": "0",
            "type": "t_uint256"
          },
          {
            "astId": 6157,
            "contract": "contracts/HoprStake.sol:HoprStake",
            "label": "virtualLockedTokenAmount",
            "offset": 0,
            "slot": "1",
            "type": "t_uint256"
          },
          {
            "astId": 6159,
            "contract": "contracts/HoprStake.sol:HoprStake",
            "label": "lastSyncTimestamp",
            "offset": 0,
            "slot": "2",
            "type": "t_uint256"
          },
          {
            "astId": 6161,
            "contract": "contracts/HoprStake.sol:HoprStake",
            "label": "cumulatedRewards",
            "offset": 0,
            "slot": "3",
            "type": "t_uint256"
          },
          {
            "astId": 6163,
            "contract": "contracts/HoprStake.sol:HoprStake",
            "label": "claimedRewards",
            "offset": 0,
            "slot": "4",
            "type": "t_uint256"
          }
        ],
        "numberOfBytes": "160"
      },
      "t_uint256": {
        "encoding": "inplace",
        "label": "uint256",
        "numberOfBytes": "32"
      }
    }
  }
}